{
  "contractName": "Counter",
  "abi": [
    {
      "anonymous": false,
      "inputs": [
        {
          "indexed": false,
          "internalType": "uint256",
          "name": "count",
          "type": "uint256"
        }
      ],
      "name": "Count",
      "type": "event"
    },
    {
      "constant": false,
      "inputs": [],
      "name": "incrementCount",
      "outputs": [],
      "payable": false,
      "stateMutability": "nonpayable",
      "type": "function"
    },
    {
      "constant": false,
      "inputs": [],
      "name": "decrementCount",
      "outputs": [],
      "payable": false,
      "stateMutability": "nonpayable",
      "type": "function"
    },
    {
      "constant": false,
      "inputs": [],
      "name": "resetCount",
      "outputs": [],
      "payable": false,
      "stateMutability": "nonpayable",
      "type": "function"
    },
    {
      "constant": true,
      "inputs": [],
      "name": "getCount",
      "outputs": [
        {
          "internalType": "uint256",
          "name": "",
          "type": "uint256"
        }
      ],
      "payable": false,
      "stateMutability": "view",
      "type": "function"
    }
  ],
  "bytecode": "0x60806040526000805534801561001457600080fd5b5061034d806100246000396000f3fe608060405234801561001057600080fd5b506004361061004c5760003560e01c8063a87d942c14610051578063b7f90f121461006f578063e5071b8e14610079578063fd89529214610083575b600080fd5b61005961008d565b6040518082815260200191505060405180910390f35b610077610096565b005b6100816100ed565b005b61008b610144565b005b60008054905090565b6100ac600160005461018690919063ffffffff16565b6000819055507face32e4392fafee7f8245a5ae6a32722dc74442d018c52e460835648cbeeeba16000546040518082815260200191505060405180910390a1565b61010360016000546101d090919063ffffffff16565b6000819055507face32e4392fafee7f8245a5ae6a32722dc74442d018c52e460835648cbeeeba16000546040518082815260200191505060405180910390a1565b600080819055507face32e4392fafee7f8245a5ae6a32722dc74442d018c52e460835648cbeeeba16000546040518082815260200191505060405180910390a1565b60006101c883836040518060400160405280601e81526020017f536166654d6174683a207375627472616374696f6e206f766572666c6f770000815250610258565b905092915050565b60008082840190508381101561024e576040517f08c379a000000000000000000000000000000000000000000000000000000000815260040180806020018281038252601b8152602001807f536166654d6174683a206164646974696f6e206f766572666c6f77000000000081525060200191505060405180910390fd5b8091505092915050565b6000838311158290610305576040517f08c379a00000000000000000000000000000000000000000000000000000000081526004018080602001828103825283818151815260200191508051906020019080838360005b838110156102ca5780820151818401526020810190506102af565b50505050905090810190601f1680156102f75780820380516001836020036101000a031916815260200191505b509250505060405180910390fd5b506000838503905080915050939250505056fea265627a7a7231582047b09cbd71fa363fafeb3fdd520c0e011808b1c0a73473a3732aff4be95c084264736f6c63430005100032",
  "source": "pragma solidity >= 0.5.0 < 0.7.0;\n\nimport \"@openzeppelin/contracts/math/SafeMath.sol\";\n\ncontract Counter {\n  using SafeMath for uint;\n\n  uint private count = 0;\n\n  event Count(\n    uint count\n  );\n\n  function incrementCount() public {\n    count = count.add(1);\n    emit Count(count);\n  }\n\n  function decrementCount() public {\n    count = count.sub(1);\n    emit Count(count);\n  }\n\n  function resetCount() public {\n    count = 0;\n    emit Count(count);\n  }\n\n  function getCount() public view returns (uint) {\n    return count;\n  }\n}\n",
  "sourcePath": "/Users/vb/Documents/src/github.com/vbstreetz/counter/backend/contracts/Counter.sol",
  "compiler": {
    "name": "solc",
    "version": "0.5.16+commit.9c3226ce.Emscripten.clang"
  },
  "schemaVersion": "3.2.0",
  "updatedAt": "2020-06-09T19:21:15.335Z",
  "networkType": "ethereum",
  "devdoc": {
    "methods": {}
  },
  "userdoc": {
    "methods": {}
  }
}