{
  "contractName": "Counter",
  "abi": [
    {
      "anonymous": false,
      "inputs": [
        {
          "indexed": false,
          "internalType": "int256",
          "name": "count",
          "type": "int256"
        }
      ],
      "name": "Count",
      "type": "event"
    },
    {
      "constant": false,
      "inputs": [],
      "name": "incrementCount",
      "outputs": [],
      "payable": false,
      "stateMutability": "nonpayable",
      "type": "function"
    },
    {
      "constant": false,
      "inputs": [],
      "name": "decrementCount",
      "outputs": [],
      "payable": false,
      "stateMutability": "nonpayable",
      "type": "function"
    },
    {
      "constant": false,
      "inputs": [],
      "name": "resetCount",
      "outputs": [],
      "payable": false,
      "stateMutability": "nonpayable",
      "type": "function"
    },
    {
      "constant": true,
      "inputs": [],
      "name": "getCount",
      "outputs": [
        {
          "internalType": "int256",
          "name": "",
          "type": "int256"
        }
      ],
      "payable": false,
      "stateMutability": "view",
      "type": "function"
    }
  ],
  "bytecode": "0x60806040526000805534801561001457600080fd5b506101a3806100246000396000f3fe608060405234801561001057600080fd5b506004361061004c5760003560e01c8063a87d942c14610051578063b7f90f121461006f578063e5071b8e14610079578063fd89529214610083575b600080fd5b61005961008d565b6040518082815260200191505060405180910390f35b610077610096565b005b6100816100e1565b005b61008b61012c565b005b60008054905090565b600160008082825403925050819055507f47a90661b520aaf860e17d861200923904ff3dc45e8640c690c905b71719464e6000546040518082815260200191505060405180910390a1565b600160008082825401925050819055507f47a90661b520aaf860e17d861200923904ff3dc45e8640c690c905b71719464e6000546040518082815260200191505060405180910390a1565b600080819055507f47a90661b520aaf860e17d861200923904ff3dc45e8640c690c905b71719464e6000546040518082815260200191505060405180910390a156fea265627a7a723158201de084bc59a029491ec52958c10cb06f96df0a93823767a9b906c8e1fbb6f0f064736f6c63430005100032",
  "source": "pragma solidity >= 0.5.0 < 0.7.0;\n\ncontract Counter {\n  int private count = 0;\n\n  event Count(\n    int count\n  );\n\n  function incrementCount() public {\n    count += 1;\n    emit Count(count);\n  }\n\n  function decrementCount() public {\n    count -= 1;\n    emit Count(count);\n  }\n\n  function resetCount() public {\n    count = 0;\n    emit Count(count);\n  }\n\n  function getCount() public view returns (int) {\n    return count;\n  }\n}\n",
  "sourcePath": "/Users/vb/Documents/src/github.com/vbstreetz/counter/backend/contracts/Counter.sol",
  "compiler": {
    "name": "solc",
    "version": "0.5.16+commit.9c3226ce.Emscripten.clang"
  },
  "schemaVersion": "3.0.23",
  "updatedAt": "2020-02-21T17:17:21.380Z",
  "devdoc": {
    "methods": {}
  },
  "userdoc": {
    "methods": {}
  }
}